:100000000EC01DC01CC01BC01AC02CC018C017C019
:1000100016C015C014C013C012C011C010C01124E6
:100020001FBECFE5D2E0DEBFCDBF20E0A0E6B0E04E
:1000300001C01D92A936B207E1F75ED07EC0E0CFC5
:10004000F894002709BF00BF0CBD03E007BB02E521
:100050000ABD05E009BD02E008BD002702BF01E0BE
:1000600003BFFFCF1F920F920FB60F9211242F9351
:100070003F938F939F93AF93BF938091650090912F
:100080006600A0916700B09168003091640023E0A1
:10009000230F2D3758F50196A11DB11D2093640043
:1000A0008093650090936600A0936700B09368000A
:1000B0008091600090916100A0916200B091630016
:1000C0000196A11DB11D8093600090936100A093E3
:1000D0006200B0936300BF91AF919F918F913F9168
:1000E0002F910F900FBE0F901F90189526E8230FA9
:1000F0000296A11DB11DD2CF78948AB582608ABDC7
:100100008AB581608ABD83B7826083BF83B781600F
:1001100083BF89B7826089BF80B7826080BF80B7A4
:10012000816080BF329A319A309A379A89DFC0E075
:0E013000D0E02097F1F364DFFCCFF894FFCF0E
:00000001FF
