:100000000EC015C014C013C012C011C010C00FC064
:100010000EC00DC00CC00BC00AC009C008C011241E
:100020001FBECFE5D2E0DEBFCDBF02D02BC0E8CFF0
:10003000F8941ABC13BE87B3836087BB80E091E05D
:1000400023E032E098BB000028BB000038BB000072
:1000500088BB000098BB000028BB000038BB000034
:1000600088BB000098BB000028BB000038BB000024
:1000700088BB000098BB000028BB000038BB000014
:0800800088BBE0CFF894FFCF2C
:00000001FF
